{
  "_format": "hh-sol-artifact-1",
  "contractName": "Staking",
  "sourceName": "contracts/Staking.sol",
  "abi": [
    {
      "inputs": [
        {
          "internalType": "address",
          "name": "_stakingToken",
          "type": "address"
        }
      ],
      "stateMutability": "nonpayable",
      "type": "constructor"
    },
    {
      "inputs": [
        {
          "internalType": "address",
          "name": "owner",
          "type": "address"
        }
      ],
      "name": "OwnableInvalidOwner",
      "type": "error"
    },
    {
      "inputs": [
        {
          "internalType": "address",
          "name": "account",
          "type": "address"
        }
      ],
      "name": "OwnableUnauthorizedAccount",
      "type": "error"
    },
    {
      "anonymous": false,
      "inputs": [
        {
          "indexed": false,
          "internalType": "uint256",
          "name": "newAnnualRate",
          "type": "uint256"
        }
      ],
      "name": "AnnualRewardRateUpdated",
      "type": "event"
    },
    {
      "anonymous": false,
      "inputs": [
        {
          "indexed": true,
          "internalType": "address",
          "name": "previousOwner",
          "type": "address"
        },
        {
          "indexed": true,
          "internalType": "address",
          "name": "newOwner",
          "type": "address"
        }
      ],
      "name": "OwnershipTransferred",
      "type": "event"
    },
    {
      "anonymous": false,
      "inputs": [
        {
          "indexed": true,
          "internalType": "address",
          "name": "user",
          "type": "address"
        },
        {
          "indexed": false,
          "internalType": "uint256",
          "name": "amount",
          "type": "uint256"
        }
      ],
      "name": "Staked",
      "type": "event"
    },
    {
      "anonymous": false,
      "inputs": [
        {
          "indexed": true,
          "internalType": "address",
          "name": "user",
          "type": "address"
        },
        {
          "indexed": false,
          "internalType": "uint256",
          "name": "amount",
          "type": "uint256"
        },
        {
          "indexed": false,
          "internalType": "uint256",
          "name": "penalty",
          "type": "uint256"
        }
      ],
      "name": "Withdrawn",
      "type": "event"
    },
    {
      "inputs": [],
      "name": "BASE",
      "outputs": [
        {
          "internalType": "uint256",
          "name": "",
          "type": "uint256"
        }
      ],
      "stateMutability": "view",
      "type": "function"
    },
    {
      "inputs": [],
      "name": "SECONDS_PER_YEAR",
      "outputs": [
        {
          "internalType": "uint256",
          "name": "",
          "type": "uint256"
        }
      ],
      "stateMutability": "view",
      "type": "function"
    },
    {
      "inputs": [],
      "name": "annualRewardRate",
      "outputs": [
        {
          "internalType": "uint256",
          "name": "",
          "type": "uint256"
        }
      ],
      "stateMutability": "view",
      "type": "function"
    },
    {
      "inputs": [],
      "name": "earlyWithdrawalPenalty",
      "outputs": [
        {
          "internalType": "uint256",
          "name": "",
          "type": "uint256"
        }
      ],
      "stateMutability": "view",
      "type": "function"
    },
    {
      "inputs": [],
      "name": "lockPeriod",
      "outputs": [
        {
          "internalType": "uint256",
          "name": "",
          "type": "uint256"
        }
      ],
      "stateMutability": "view",
      "type": "function"
    },
    {
      "inputs": [],
      "name": "minimumStakeAmount",
      "outputs": [
        {
          "internalType": "uint256",
          "name": "",
          "type": "uint256"
        }
      ],
      "stateMutability": "view",
      "type": "function"
    },
    {
      "inputs": [],
      "name": "owner",
      "outputs": [
        {
          "internalType": "address",
          "name": "",
          "type": "address"
        }
      ],
      "stateMutability": "view",
      "type": "function"
    },
    {
      "inputs": [
        {
          "internalType": "address",
          "name": "_user",
          "type": "address"
        }
      ],
      "name": "pendingRewards",
      "outputs": [
        {
          "internalType": "uint256",
          "name": "",
          "type": "uint256"
        }
      ],
      "stateMutability": "view",
      "type": "function"
    },
    {
      "inputs": [],
      "name": "renounceOwnership",
      "outputs": [],
      "stateMutability": "nonpayable",
      "type": "function"
    },
    {
      "inputs": [
        {
          "internalType": "uint256",
          "name": "_annualRate",
          "type": "uint256"
        }
      ],
      "name": "setAnnualRewardRate",
      "outputs": [],
      "stateMutability": "nonpayable",
      "type": "function"
    },
    {
      "inputs": [
        {
          "internalType": "uint256",
          "name": "_penalty",
          "type": "uint256"
        }
      ],
      "name": "setEarlyWithdrawalPenalty",
      "outputs": [],
      "stateMutability": "nonpayable",
      "type": "function"
    },
    {
      "inputs": [
        {
          "internalType": "uint256",
          "name": "_lockPeriod",
          "type": "uint256"
        }
      ],
      "name": "setLockPeriod",
      "outputs": [],
      "stateMutability": "nonpayable",
      "type": "function"
    },
    {
      "inputs": [
        {
          "internalType": "uint256",
          "name": "_minimumStakeAmount",
          "type": "uint256"
        }
      ],
      "name": "setMinimumStakeAmount",
      "outputs": [],
      "stateMutability": "nonpayable",
      "type": "function"
    },
    {
      "inputs": [
        {
          "internalType": "uint256[3]",
          "name": "_rates",
          "type": "uint256[3]"
        }
      ],
      "name": "setTierRewardRates",
      "outputs": [],
      "stateMutability": "nonpayable",
      "type": "function"
    },
    {
      "inputs": [
        {
          "internalType": "uint256[3]",
          "name": "_thresholds",
          "type": "uint256[3]"
        }
      ],
      "name": "setTierThresholds",
      "outputs": [],
      "stateMutability": "nonpayable",
      "type": "function"
    },
    {
      "inputs": [
        {
          "internalType": "uint256",
          "name": "amount",
          "type": "uint256"
        }
      ],
      "name": "stake",
      "outputs": [],
      "stateMutability": "nonpayable",
      "type": "function"
    },
    {
      "inputs": [],
      "name": "stakingToken",
      "outputs": [
        {
          "internalType": "contract IERC20",
          "name": "",
          "type": "address"
        }
      ],
      "stateMutability": "view",
      "type": "function"
    },
    {
      "inputs": [
        {
          "internalType": "uint256",
          "name": "",
          "type": "uint256"
        }
      ],
      "name": "tierRewardRates",
      "outputs": [
        {
          "internalType": "uint256",
          "name": "",
          "type": "uint256"
        }
      ],
      "stateMutability": "view",
      "type": "function"
    },
    {
      "inputs": [
        {
          "internalType": "uint256",
          "name": "",
          "type": "uint256"
        }
      ],
      "name": "tierThresholds",
      "outputs": [
        {
          "internalType": "uint256",
          "name": "",
          "type": "uint256"
        }
      ],
      "stateMutability": "view",
      "type": "function"
    },
    {
      "inputs": [
        {
          "internalType": "address",
          "name": "newOwner",
          "type": "address"
        }
      ],
      "name": "transferOwnership",
      "outputs": [],
      "stateMutability": "nonpayable",
      "type": "function"
    },
    {
      "inputs": [
        {
          "internalType": "address",
          "name": "",
          "type": "address"
        }
      ],
      "name": "userInfo",
      "outputs": [
        {
          "internalType": "uint256",
          "name": "totalStaked",
          "type": "uint256"
        },
        {
          "internalType": "uint256",
          "name": "weightedStartTime",
          "type": "uint256"
        }
      ],
      "stateMutability": "view",
      "type": "function"
    },
    {
      "inputs": [
        {
          "internalType": "uint256",
          "name": "amount",
          "type": "uint256"
        }
      ],
      "name": "withdraw",
      "outputs": [],
      "stateMutability": "nonpayable",
      "type": "function"
    },
    {
      "inputs": [],
      "name": "withdrawAll",
      "outputs": [],
      "stateMutability": "nonpayable",
      "type": "function"
    }
  ],
  "bytecode": "0x678ac7230489e8000060039081556103e860045560e0604052683635c9adc5dea00000608090815269010f0cf064dd5920000060a05269021e19e0c9bab240000060c0526200005291600591906200016b565b506040805160608101825261012c81526101f460208201526102bc9181019190915262000084906008906003620001b9565b5062278d00600b556101f4600c553480156200009f57600080fd5b5060405162000f0338038062000f03833981016040819052620000c29162000207565b3380620000e957604051631e4fbdf760e01b81526000600482015260240160405180910390fd5b620000f4816200011b565b50600180546001600160a01b0319166001600160a01b039290921691909117905562000239565b600080546001600160a01b038381166001600160a01b0319831681178455604051919092169283917f8be0079c531659141344cd1fd0a4f28419497f9722a3daafe3b4186f6b6457e09190a35050565b8260038101928215620001a7579160200282015b82811115620001a757825182906001600160501b03169055916020019190600101906200017f565b50620001b5929150620001f0565b5090565b8260038101928215620001a7579160200282015b82811115620001a7578251829061ffff16905591602001919060010190620001cd565b5b80821115620001b55760008155600101620001f1565b6000602082840312156200021a57600080fd5b81516001600160a01b03811681146200023257600080fd5b9392505050565b610cba80620002496000396000f3fe608060405234801561001057600080fd5b506004361061014d5760003560e01c806372f702f3116100c3578063a100d69d1161007c578063a100d69d146102ab578063a694fc3a146102be578063c432085a146102d1578063e6a69ab8146102e4578063ec342ad0146102ef578063f2fde38b146102f857600080fd5b806372f702f31461022e578063779972da14610259578063853828b61461026c5780638a2e98f3146102745780638da5cb5b146102875780639538815f1461029857600080fd5b806331d7a2621161011557806331d7a262146101db5780633fd8b02f146101ee57806351b4ea01146101f75780636227391a1461020a5780636b036f451461021d578063715018a61461022657600080fd5b80630d29fcd4146101525780631715d015146101675780631959a00214610183578063291a3d9e146101bf5780632e1a7d4d146101c8575b600080fd5b610165610160366004610b12565b61030b565b005b61017060045481565b6040519081526020015b60405180910390f35b6101aa610191366004610b2b565b6002602052600090815260409020805460019091015482565b6040805192835260208301919091520161017a565b610170600c5481565b6101656101d6366004610b12565b610318565b6101706101e9366004610b2b565b61032d565b610170600b5481565b610165610205366004610b12565b6103f2565b610170610218366004610b12565b610485565b61017060035481565b61016561049c565b600154610241906001600160a01b031681565b6040516001600160a01b03909116815260200161017a565b610165610267366004610b12565b6104b0565b6101656104bd565b610165610282366004610b12565b6104df565b6000546001600160a01b0316610241565b6101656102a6366004610b5b565b61053d565b6101706102b9366004610b12565b610556565b6101656102cc366004610b12565b610566565b6101656102df366004610b5b565b61070a565b6101706301e1338081565b61017061271081565b610165610306366004610b2b565b61071f565b61031361075a565b600355565b61032133610787565b61032a816107fa565b50565b6001600160a01b0381166000908152600260205260408120805482036103565750600092915050565b60008160010154426103689190610bfd565b905060006103798360000154610a2a565b9050600061038d6127106301e13380610c16565b8260045461039b9190610c2d565b6103ad90670de0b6b3a7640000610c16565b6103b79190610c40565b8454909150600090670de0b6b3a7640000906103d38685610c16565b6103dd9190610c16565b6103e79190610c40565b979650505050505050565b6103fa61075a565b61138881111561044a5760405162461bcd60e51b8152602060048201526016602482015275526174652063616e6e6f74206578636565642035302560501b60448201526064015b60405180910390fd5b60048190556040518181527f800271f881669a21949e68b6c96cd54f9f8b0d9f0fc0f39941062de0795303e49060200160405180910390a150565b6008816003811061049557600080fd5b0154905081565b6104a461075a565b6104ae6000610a6f565b565b6104b861075a565b600b55565b6104c633610787565b336000908152600260205260409020546104ae906107fa565b6104e761075a565b60648111156105385760405162461bcd60e51b815260206004820152601a60248201527f496e76616c69642070656e616c74792070657263656e746167650000000000006044820152606401610441565b600c55565b61054561075a565b6105526005826003610abf565b5050565b6005816003811061049557600080fd5b6003548110156105ca5760405162461bcd60e51b815260206004820152602960248201527f5374616b65206d757374206265206174206c65617374206d696e696d756d5374604482015268185ad9505b5bdd5b9d60ba1b6064820152608401610441565b6105d333610787565b3360009081526002602052604090208054156106355760006105f54284610c16565b600183015483546106069190610c16565b6106109190610c2d565b8254909150610620908490610c2d565b61062a9082610c40565b60018301555061063c565b4260018201555b818160000160008282546106509190610c2d565b90915550506001546040516323b872dd60e01b8152336004820152306024820152604481018490526001600160a01b03909116906323b872dd906064016020604051808303816000875af11580156106ac573d6000803e3d6000fd5b505050506040513d601f19601f820116820180604052508101906106d09190610c62565b5060405182815233907f9e71bc8eea02a63969f509818f2dafb9254532904319f9dbda79b67bd34a5f3d9060200160405180910390a25050565b61071261075a565b6105526008826003610abf565b61072761075a565b6001600160a01b03811661075157604051631e4fbdf760e01b815260006004820152602401610441565b61032a81610a6f565b6000546001600160a01b031633146104ae5760405163118cdaa760e01b8152336004820152602401610441565b6001600160a01b0381166000908152600260205260408120906107a98361032d565b905080156107f55760006107bd4283610c16565b600184015484546107ce9190610c16565b6107d89190610c2d565b9050818360000160008282546107ee9190610c2d565b9091555050505b505050565b3360009081526002602052604090208115801590610819575080548211155b6108655760405162461bcd60e51b815260206004820152601960248201527f496e76616c6964207769746864726177616c20616d6f756e74000000000000006044820152606401610441565b6000600b5482600101546108799190610c2d565b42101561093457612710600c54846108919190610c16565b61089b9190610c40565b6001549091506001600160a01b031663a9059cbb6108c16000546001600160a01b031690565b6040516001600160e01b031960e084901b1681526001600160a01b039091166004820152602481018490526044016020604051808303816000875af115801561090e573d6000803e3d6000fd5b505050506040513d601f19601f820116820180604052508101906109329190610c62565b505b828260000160008282546109489190610bfd565b9091555050815460000361095e57600060018301555b6001546001600160a01b031663a9059cbb3361097a8487610bfd565b6040516001600160e01b031960e085901b1681526001600160a01b03909216600483015260248201526044016020604051808303816000875af11580156109c5573d6000803e3d6000fd5b505050506040513d601f19601f820116820180604052508101906109e99190610c62565b50604080518481526020810183905233917f92ccf450a286a957af52509bc1c9939d1a6a481783e142e41e2499f0bb66ebc6910160405180910390a2505050565b6007546000908210610a4357600860025b015492915050565b6006548210610a555760086001610a3b565b6005548210610a675760086000610a3b565b506000919050565b600080546001600160a01b038381166001600160a01b0319831681178455604051919092169283917f8be0079c531659141344cd1fd0a4f28419497f9722a3daafe3b4186f6b6457e09190a35050565b8260038101928215610aed579160200282015b82811115610aed578251825591602001919060010190610ad2565b50610af9929150610afd565b5090565b5b80821115610af95760008155600101610afe565b600060208284031215610b2457600080fd5b5035919050565b600060208284031215610b3d57600080fd5b81356001600160a01b0381168114610b5457600080fd5b9392505050565b600060608284031215610b6d57600080fd5b82601f830112610b7c57600080fd5b6040516060810181811067ffffffffffffffff82111715610bad57634e487b7160e01b600052604160045260246000fd5b604052806060840185811115610bc257600080fd5b845b81811015610bdc578035835260209283019201610bc4565b509195945050505050565b634e487b7160e01b600052601160045260246000fd5b81810381811115610c1057610c10610be7565b92915050565b8082028115828204841417610c1057610c10610be7565b80820180821115610c1057610c10610be7565b600082610c5d57634e487b7160e01b600052601260045260246000fd5b500490565b600060208284031215610c7457600080fd5b81518015158114610b5457600080fdfea2646970667358221220af8ab260d2cd60a4ce77b07f103a42a64656c6dff0f9abf831d3ffa53be2b18d64736f6c63430008180033",
  "linkReferences": {},
  "deployedLinkReferences": {}
}